{
  "address": "0xe13bDfFa500c9be38fF4954Dac94e5eB412C6079",
  "abi": [
    {
      "anonymous": false,
      "inputs": [
        {
          "indexed": true,
          "internalType": "address",
          "name": "user",
          "type": "address"
        },
        {
          "indexed": false,
          "internalType": "uint256",
          "name": "amount",
          "type": "uint256"
        }
      ],
      "name": "Deposited",
      "type": "event"
    },
    {
      "anonymous": false,
      "inputs": [
        {
          "indexed": true,
          "internalType": "address",
          "name": "user",
          "type": "address"
        },
        {
          "indexed": false,
          "internalType": "uint256",
          "name": "amount",
          "type": "uint256"
        }
      ],
      "name": "Withdrawn",
      "type": "event"
    },
    {
      "inputs": [
        {
          "internalType": "address",
          "name": "user",
          "type": "address"
        }
      ],
      "name": "balanceOf",
      "outputs": [
        {
          "internalType": "uint256",
          "name": "",
          "type": "uint256"
        }
      ],
      "stateMutability": "view",
      "type": "function"
    },
    {
      "inputs": [],
      "name": "deposit",
      "outputs": [],
      "stateMutability": "payable",
      "type": "function"
    },
    {
      "inputs": [
        {
          "internalType": "address",
          "name": "",
          "type": "address"
        }
      ],
      "name": "deposits",
      "outputs": [
        {
          "internalType": "uint256",
          "name": "",
          "type": "uint256"
        }
      ],
      "stateMutability": "view",
      "type": "function"
    },
    {
      "inputs": [],
      "name": "totalDeposits",
      "outputs": [
        {
          "internalType": "uint256",
          "name": "",
          "type": "uint256"
        }
      ],
      "stateMutability": "view",
      "type": "function"
    },
    {
      "inputs": [
        {
          "internalType": "uint256",
          "name": "amount",
          "type": "uint256"
        }
      ],
      "name": "withdraw",
      "outputs": [],
      "stateMutability": "nonpayable",
      "type": "function"
    },
    {
      "stateMutability": "payable",
      "type": "receive"
    }
  ],
  "transactionHash": "0x14845e02a4584e1ec1fee7897c45c47d5efed1dcc1e242708ad1cd03f1644a13",
  "args": [],
  "numDeployments": 1,
  "solcInputHash": "6615d1e4b29148cca06a12ffb30a800a",
  "bytecode": "0x608060405234801561001057600080fd5b506103fd806100206000396000f3fe60806040526004361061004e5760003560e01c80632e1a7d4d146100cc57806370a08231146100ee5780637d88209714610136578063d0e30db01461014c578063fc7e286d1461015457600080fd5b366100c7573360009081526020819052604081208054349290610072908490610352565b92505081905550346001600082825461008b9190610352565b909155505060405134815233907f2da466a7b24304f47e87fa2e1e5a81b9831ce54fec19055ce277ca2f39ba42c49060200160405180910390a2005b600080fd5b3480156100d857600080fd5b506100ec6100e736600461036b565b610181565b005b3480156100fa57600080fd5b50610124610109366004610384565b6001600160a01b031660009081526020819052604090205490565b60405190815260200160405180910390f35b34801561014257600080fd5b5061012460015481565b6100ec61027f565b34801561016057600080fd5b5061012461016f366004610384565b60006020819052908152604090205481565b336000908152602081905260409020548111156101dc5760405162461bcd60e51b8152602060048201526014602482015273496e73756666696369656e742062616c616e636560601b60448201526064015b60405180910390fd5b33600090815260208190526040812080548392906101fb9084906103b4565b92505081905550806001600082825461021491906103b4565b9091555050604051339082156108fc029083906000818181858888f19350505050158015610246573d6000803e3d6000fd5b5060405181815233907f7084f5476618d8e60b11ef0d7d3f06914655adb8793e28ff7f018d4c76d505d59060200160405180910390a250565b600034116102c85760405162461bcd60e51b81526020600482015260166024820152754d757374206465706f73697420736f6d657468696e6760501b60448201526064016101d3565b33600090815260208190526040812080543492906102e7908490610352565b9250508190555034600160008282546103009190610352565b909155505060405134815233907f2da466a7b24304f47e87fa2e1e5a81b9831ce54fec19055ce277ca2f39ba42c49060200160405180910390a2565b634e487b7160e01b600052601160045260246000fd5b808201808211156103655761036561033c565b92915050565b60006020828403121561037d57600080fd5b5035919050565b60006020828403121561039657600080fd5b81356001600160a01b03811681146103ad57600080fd5b9392505050565b818103818111156103655761036561033c56fea2646970667358221220a0ec27011959d83130cbb68a5a64e327184a032569413dfa92aab985b28e2f6464736f6c63430008140033",
  "devdoc": {
    "kind": "dev",
    "methods": {},
    "version": 1
  },
  "userdoc": {
    "kind": "user",
    "methods": {},
    "version": 1
  },
  "storageLayout": {
    "storage": [
      {
        "astId": 5,
        "contract": "contracts/MockAave.sol:MockAave",
        "label": "deposits",
        "offset": 0,
        "slot": "0",
        "type": "t_mapping(t_address,t_uint256)"
      },
      {
        "astId": 7,
        "contract": "contracts/MockAave.sol:MockAave",
        "label": "totalDeposits",
        "offset": 0,
        "slot": "1",
        "type": "t_uint256"
      }
    ],
    "types": {
      "t_address": {
        "encoding": "inplace",
        "label": "address",
        "numberOfBytes": "20"
      },
      "t_mapping(t_address,t_uint256)": {
        "encoding": "mapping",
        "key": "t_address",
        "label": "mapping(address => uint256)",
        "numberOfBytes": "32",
        "value": "t_uint256"
      },
      "t_uint256": {
        "encoding": "inplace",
        "label": "uint256",
        "numberOfBytes": "32"
      }
    }
  }
}